{
    "contractName": "Idea",
    "abi": [
        {
            "anonymous": false,
            "inputs": [
                {
                    "components": [
                        {
                            "internalType": "string",
                            "name": "name",
                            "type": "string"
                        },
                        {
                            "internalType": "string",
                            "name": "descriptioin",
                            "type": "string"
                        },
                        {
                            "internalType": "string",
                            "name": "imageUrl",
                            "type": "string"
                        },
                        {
                            "internalType": "string",
                            "name": "author",
                            "type": "string"
                        }
                    ],
                    "indexed": false,
                    "internalType": "struct Idea.idea",
                    "name": "",
                    "type": "tuple"
                }
            ],
            "name": "ideaCreated",
            "type": "event"
        },
        {
            "inputs": [
                {
                    "internalType": "uint32",
                    "name": "",
                    "type": "uint32"
                }
            ],
            "name": "ideas",
            "outputs": [
                {
                    "internalType": "string",
                    "name": "name",
                    "type": "string"
                },
                {
                    "internalType": "string",
                    "name": "descriptioin",
                    "type": "string"
                },
                {
                    "internalType": "string",
                    "name": "imageUrl",
                    "type": "string"
                },
                {
                    "internalType": "string",
                    "name": "author",
                    "type": "string"
                }
            ],
            "stateMutability": "view",
            "type": "function"
        },
        {
            "inputs": [],
            "name": "numOfIdeas",
            "outputs": [
                {
                    "internalType": "uint32",
                    "name": "",
                    "type": "uint32"
                }
            ],
            "stateMutability": "view",
            "type": "function"
        },
        {
            "inputs": [
                {
                    "internalType": "string",
                    "name": "_name",
                    "type": "string"
                },
                {
                    "internalType": "string",
                    "name": "_description",
                    "type": "string"
                },
                {
                    "internalType": "string",
                    "name": "_imageUrl",
                    "type": "string"
                },
                {
                    "internalType": "string",
                    "name": "_author",
                    "type": "string"
                }
            ],
            "name": "createIdea",
            "outputs": [],
            "stateMutability": "nonpayable",
            "type": "function"
        }
    ],
    "bytecode": "0x60806040526000600160006101000a81548163ffffffff021916908363ffffffff16021790555034801561003257600080fd5b50610cc5806100426000396000f3fe608060405234801561001057600080fd5b50600436106100415760003560e01c80637fb75ded14610046578063966f344f14610064578063e1281d1a14610097575b600080fd5b61004e6100b3565b60405161005b9190610491565b60405180910390f35b61007e600480360381019061007991906104ec565b6100c9565b60405161008e94939291906105b2565b60405180910390f35b6100b160048036038101906100ac9190610748565b610319565b005b600160009054906101000a900463ffffffff1681565b60006020528060005260406000206000915090508060000180546100ec9061084e565b80601f01602080910402602001604051908101604052809291908181526020018280546101189061084e565b80156101655780601f1061013a57610100808354040283529160200191610165565b820191906000526020600020905b81548152906001019060200180831161014857829003601f168201915b50505050509080600101805461017a9061084e565b80601f01602080910402602001604051908101604052809291908181526020018280546101a69061084e565b80156101f35780601f106101c8576101008083540402835291602001916101f3565b820191906000526020600020905b8154815290600101906020018083116101d657829003601f168201915b5050505050908060020180546102089061084e565b80601f01602080910402602001604051908101604052809291908181526020018280546102349061084e565b80156102815780601f1061025657610100808354040283529160200191610281565b820191906000526020600020905b81548152906001019060200180831161026457829003601f168201915b5050505050908060030180546102969061084e565b80601f01602080910402602001604051908101604052809291908181526020018280546102c29061084e565b801561030f5780601f106102e45761010080835404028352916020019161030f565b820191906000526020600020905b8154815290600101906020018083116102f257829003601f168201915b5050505050905084565b604051806080016040528085815260200184815260200183815260200182815250600080600160009054906101000a900463ffffffff1663ffffffff1663ffffffff168152602001908152602001600020600082015181600001908161037f9190610a35565b5060208201518160010190816103959190610a35565b5060408201518160020190816103ab9190610a35565b5060608201518160030190816103c19190610a35565b509050507fd2ea16a5c5085067e31c66a6e95159374533433755ddb62221ec310c2057cfa2600080600160009054906101000a900463ffffffff1663ffffffff1663ffffffff1681526020019081526020016000206040516104239190610c12565b60405180910390a16001600081819054906101000a900463ffffffff168092919061044d90610c63565b91906101000a81548163ffffffff021916908363ffffffff1602179055505050505050565b600063ffffffff82169050919050565b61048b81610472565b82525050565b60006020820190506104a66000830184610482565b92915050565b6000604051905090565b600080fd5b600080fd5b6104c981610472565b81146104d457600080fd5b50565b6000813590506104e6816104c0565b92915050565b600060208284031215610502576105016104b6565b5b6000610510848285016104d7565b91505092915050565b600081519050919050565b600082825260208201905092915050565b60005b83811015610553578082015181840152602081019050610538565b83811115610562576000848401525b50505050565b6000601f19601f8301169050919050565b600061058482610519565b61058e8185610524565b935061059e818560208601610535565b6105a781610568565b840191505092915050565b600060808201905081810360008301526105cc8187610579565b905081810360208301526105e08186610579565b905081810360408301526105f48185610579565b905081810360608301526106088184610579565b905095945050505050565b600080fd5b600080fd5b7f4e487b7100000000000000000000000000000000000000000000000000000000600052604160045260246000fd5b61065582610568565b810181811067ffffffffffffffff821117156106745761067361061d565b5b80604052505050565b60006106876104ac565b9050610693828261064c565b919050565b600067ffffffffffffffff8211156106b3576106b261061d565b5b6106bc82610568565b9050602081019050919050565b82818337600083830152505050565b60006106eb6106e684610698565b61067d565b90508281526020810184848401111561070757610706610618565b5b6107128482856106c9565b509392505050565b600082601f83011261072f5761072e610613565b5b813561073f8482602086016106d8565b91505092915050565b60008060008060808587031215610762576107616104b6565b5b600085013567ffffffffffffffff8111156107805761077f6104bb565b5b61078c8782880161071a565b945050602085013567ffffffffffffffff8111156107ad576107ac6104bb565b5b6107b98782880161071a565b935050604085013567ffffffffffffffff8111156107da576107d96104bb565b5b6107e68782880161071a565b925050606085013567ffffffffffffffff811115610807576108066104bb565b5b6108138782880161071a565b91505092959194509250565b7f4e487b7100000000000000000000000000000000000000000000000000000000600052602260045260246000fd5b6000600282049050600182168061086657607f821691505b6020821081036108795761087861081f565b5b50919050565b60008190508160005260206000209050919050565b60006020601f8301049050919050565b600082821b905092915050565b6000600883026108e17fffffffffffffffffffffffffffffffffffffffffffffffffffffffffffffffff826108a4565b6108eb86836108a4565b95508019841693508086168417925050509392505050565b6000819050919050565b6000819050919050565b600061093261092d61092884610903565b61090d565b610903565b9050919050565b6000819050919050565b61094c83610917565b61096061095882610939565b8484546108b1565b825550505050565b600090565b610975610968565b610980818484610943565b505050565b5b818110156109a45761099960008261096d565b600181019050610986565b5050565b601f8211156109e9576109ba8161087f565b6109c384610894565b810160208510156109d2578190505b6109e66109de85610894565b830182610985565b50505b505050565b600082821c905092915050565b6000610a0c600019846008026109ee565b1980831691505092915050565b6000610a2583836109fb565b9150826002028217905092915050565b610a3e82610519565b67ffffffffffffffff811115610a5757610a5661061d565b5b610a61825461084e565b610a6c8282856109a8565b600060209050601f831160018114610a9f5760008415610a8d578287015190505b610a978582610a19565b865550610aff565b601f198416610aad8661087f565b60005b82811015610ad557848901518255600182019150602085019450602081019050610ab0565b86831015610af25784890151610aee601f8916826109fb565b8355505b6001600288020188555050505b505050505050565b600082825260208201905092915050565b60008154610b258161084e565b610b2f8186610b07565b94506001821660008114610b4a5760018114610b6057610b93565b60ff198316865281151560200286019350610b93565b610b698561087f565b60005b83811015610b8b57815481890152600182019150602081019050610b6c565b808801955050505b50505092915050565b60006080830160008084018583036000870152610bb98382610b18565b925050600184018583036020870152610bd28382610b18565b925050600284018583036040870152610beb8382610b18565b925050600384018583036060870152610c048382610b18565b925050819250505092915050565b60006020820190508181036000830152610c2c8184610b9c565b905092915050565b7f4e487b7100000000000000000000000000000000000000000000000000000000600052601160045260246000fd5b6000610c6e82610472565b915063ffffffff8203610c8457610c83610c34565b5b60018201905091905056fea2646970667358221220b5e06fea61f8b900d0c533fac5d79796f24dcab8a1ad196ef31be8455816387a64736f6c634300080f0033",
    "immutableReferences": {},
    "source": "// SPDX-License-Identifier: GPL-3.0\n\npragma solidity >=0.7.0 <0.9.0;\n\ncontract Idea {\n\n    struct idea {\n        string name;\n        string descriptioin;\n        string imageUrl;\n        string author;\n    }\n    \n    mapping(uint32 => idea) public ideas;\n    uint32 public numOfIdeas = 0;\n    event ideaCreated(idea);\n\n    // function getIdea(uint32 _key) public view returns (idea memory){\n    //     return ideas[_key];\n    // }\n    //0xD2344f3054D363Aa2715ba83B29F58aCcfeb9186\n\n    function createIdea(string memory _name, string memory _description, string memory _imageUrl, string memory _author) public {\n        ideas[numOfIdeas] = idea(_name, _description, _imageUrl, _author);\n        emit ideaCreated(ideas[numOfIdeas]);\n        numOfIdeas++;\n    }\n}",
    "sourcePath": "/Users/shubham/DIP-SmartContract/contracts/Ideas.sol",
    "compiler": {
        "name": "solc",
        "version": "0.8.15+commit.e14f2714.Emscripten.clang"
    },
    "schemaVersion": "3.4.8",
    "updatedAt": "2022-12-28T17:02:42.530Z",
    "devdoc": {
        "kind": "dev",
        "methods": {},
        "version": 1
    },
    "userdoc": {
        "kind": "user",
        "methods": {},
        "version": 1
    }
}