{
  "contractName": "IdeaNfFT",
  "abi": [
    {
      "inputs": [],
      "stateMutability": "nonpayable",
      "type": "constructor"
    },
    {
      "anonymous": false,
      "inputs": [
        {
          "indexed": true,
          "internalType": "address",
          "name": "owner",
          "type": "address"
        },
        {
          "indexed": true,
          "internalType": "address",
          "name": "approved",
          "type": "address"
        },
        {
          "indexed": true,
          "internalType": "uint256",
          "name": "tokenId",
          "type": "uint256"
        }
      ],
      "name": "Approval",
      "type": "event"
    },
    {
      "anonymous": false,
      "inputs": [
        {
          "indexed": true,
          "internalType": "address",
          "name": "owner",
          "type": "address"
        },
        {
          "indexed": true,
          "internalType": "address",
          "name": "operator",
          "type": "address"
        },
        {
          "indexed": false,
          "internalType": "bool",
          "name": "approved",
          "type": "bool"
        }
      ],
      "name": "ApprovalForAll",
      "type": "event"
    },
    {
      "anonymous": false,
      "inputs": [
        {
          "indexed": true,
          "internalType": "address",
          "name": "from",
          "type": "address"
        },
        {
          "indexed": true,
          "internalType": "address",
          "name": "to",
          "type": "address"
        },
        {
          "indexed": true,
          "internalType": "uint256",
          "name": "tokenId",
          "type": "uint256"
        }
      ],
      "name": "Transfer",
      "type": "event"
    },
    {
      "inputs": [
        {
          "internalType": "address",
          "name": "to",
          "type": "address"
        },
        {
          "internalType": "uint256",
          "name": "tokenId",
          "type": "uint256"
        }
      ],
      "name": "approve",
      "outputs": [],
      "stateMutability": "nonpayable",
      "type": "function"
    },
    {
      "inputs": [
        {
          "internalType": "address",
          "name": "owner",
          "type": "address"
        }
      ],
      "name": "balanceOf",
      "outputs": [
        {
          "internalType": "uint256",
          "name": "",
          "type": "uint256"
        }
      ],
      "stateMutability": "view",
      "type": "function"
    },
    {
      "inputs": [
        {
          "internalType": "uint256",
          "name": "tokenId",
          "type": "uint256"
        }
      ],
      "name": "getApproved",
      "outputs": [
        {
          "internalType": "address",
          "name": "",
          "type": "address"
        }
      ],
      "stateMutability": "view",
      "type": "function"
    },
    {
      "inputs": [
        {
          "internalType": "address",
          "name": "owner",
          "type": "address"
        },
        {
          "internalType": "address",
          "name": "operator",
          "type": "address"
        }
      ],
      "name": "isApprovedForAll",
      "outputs": [
        {
          "internalType": "bool",
          "name": "",
          "type": "bool"
        }
      ],
      "stateMutability": "view",
      "type": "function"
    },
    {
      "inputs": [],
      "name": "name",
      "outputs": [
        {
          "internalType": "string",
          "name": "",
          "type": "string"
        }
      ],
      "stateMutability": "view",
      "type": "function"
    },
    {
      "inputs": [
        {
          "internalType": "uint256",
          "name": "tokenId",
          "type": "uint256"
        }
      ],
      "name": "ownerOf",
      "outputs": [
        {
          "internalType": "address",
          "name": "",
          "type": "address"
        }
      ],
      "stateMutability": "view",
      "type": "function"
    },
    {
      "inputs": [
        {
          "internalType": "address",
          "name": "from",
          "type": "address"
        },
        {
          "internalType": "address",
          "name": "to",
          "type": "address"
        },
        {
          "internalType": "uint256",
          "name": "tokenId",
          "type": "uint256"
        }
      ],
      "name": "safeTransferFrom",
      "outputs": [],
      "stateMutability": "nonpayable",
      "type": "function"
    },
    {
      "inputs": [
        {
          "internalType": "address",
          "name": "from",
          "type": "address"
        },
        {
          "internalType": "address",
          "name": "to",
          "type": "address"
        },
        {
          "internalType": "uint256",
          "name": "tokenId",
          "type": "uint256"
        },
        {
          "internalType": "bytes",
          "name": "data",
          "type": "bytes"
        }
      ],
      "name": "safeTransferFrom",
      "outputs": [],
      "stateMutability": "nonpayable",
      "type": "function"
    },
    {
      "inputs": [
        {
          "internalType": "address",
          "name": "operator",
          "type": "address"
        },
        {
          "internalType": "bool",
          "name": "approved",
          "type": "bool"
        }
      ],
      "name": "setApprovalForAll",
      "outputs": [],
      "stateMutability": "nonpayable",
      "type": "function"
    },
    {
      "inputs": [
        {
          "internalType": "bytes4",
          "name": "interfaceId",
          "type": "bytes4"
        }
      ],
      "name": "supportsInterface",
      "outputs": [
        {
          "internalType": "bool",
          "name": "",
          "type": "bool"
        }
      ],
      "stateMutability": "view",
      "type": "function"
    },
    {
      "inputs": [],
      "name": "symbol",
      "outputs": [
        {
          "internalType": "string",
          "name": "",
          "type": "string"
        }
      ],
      "stateMutability": "view",
      "type": "function"
    },
    {
      "inputs": [],
      "name": "tokenId",
      "outputs": [
        {
          "internalType": "uint256",
          "name": "_value",
          "type": "uint256"
        }
      ],
      "stateMutability": "view",
      "type": "function"
    },
    {
      "inputs": [
        {
          "internalType": "uint256",
          "name": "tokenId",
          "type": "uint256"
        }
      ],
      "name": "tokenURI",
      "outputs": [
        {
          "internalType": "string",
          "name": "",
          "type": "string"
        }
      ],
      "stateMutability": "view",
      "type": "function"
    },
    {
      "inputs": [
        {
          "internalType": "address",
          "name": "from",
          "type": "address"
        },
        {
          "internalType": "address",
          "name": "to",
          "type": "address"
        },
        {
          "internalType": "uint256",
          "name": "tokenId",
          "type": "uint256"
        }
      ],
      "name": "transferFrom",
      "outputs": [],
      "stateMutability": "nonpayable",
      "type": "function"
    },
    {
      "inputs": [
        {
          "internalType": "string",
          "name": "_name",
          "type": "string"
        },
        {
          "internalType": "string",
          "name": "_description",
          "type": "string"
        },
        {
          "internalType": "string",
          "name": "_imageUrl",
          "type": "string"
        },
        {
          "internalType": "string",
          "name": "_author",
          "type": "string"
        }
      ],
      "name": "createIdea",
      "outputs": [
        {
          "internalType": "uint256",
          "name": "",
          "type": "uint256"
        }
      ],
      "stateMutability": "nonpayable",
      "type": "function"
    }
  ],
  "bytecode": "0x60806040523480156200001157600080fd5b506040518060400160405280600881526020017f49646561204e46540000000000000000000000000000000000000000000000008152506040518060400160405280600381526020017f444950000000000000000000000000000000000000000000000000000000000081525081600090816200008f919062000324565b508060019081620000a1919062000324565b5050506200040b565b600081519050919050565b7f4e487b7100000000000000000000000000000000000000000000000000000000600052604160045260246000fd5b7f4e487b7100000000000000000000000000000000000000000000000000000000600052602260045260246000fd5b600060028204905060018216806200012c57607f821691505b602082108103620001425762000141620000e4565b5b50919050565b60008190508160005260206000209050919050565b60006020601f8301049050919050565b600082821b905092915050565b600060088302620001ac7fffffffffffffffffffffffffffffffffffffffffffffffffffffffffffffffff826200016d565b620001b886836200016d565b95508019841693508086168417925050509392505050565b6000819050919050565b6000819050919050565b600062000205620001ff620001f984620001d0565b620001da565b620001d0565b9050919050565b6000819050919050565b6200022183620001e4565b6200023962000230826200020c565b8484546200017a565b825550505050565b600090565b6200025062000241565b6200025d81848462000216565b505050565b5b8181101562000285576200027960008262000246565b60018101905062000263565b5050565b601f821115620002d4576200029e8162000148565b620002a9846200015d565b81016020851015620002b9578190505b620002d1620002c8856200015d565b83018262000262565b50505b505050565b600082821c905092915050565b6000620002f960001984600802620002d9565b1980831691505092915050565b6000620003148383620002e6565b9150826002028217905092915050565b6200032f82620000aa565b67ffffffffffffffff8111156200034b576200034a620000b5565b5b62000357825462000113565b6200036482828562000289565b600060209050601f8311600181146200039c576000841562000387578287015190505b62000393858262000306565b86555062000403565b601f198416620003ac8662000148565b60005b82811015620003d657848901518255600182019150602085019450602081019050620003af565b86831015620003f65784890151620003f2601f891682620002e6565b8355505b6001600288020188555050505b505050505050565b613310806200041b6000396000f3fe608060405234801561001057600080fd5b50600436106100f55760003560e01c80636352211e11610097578063b88d4fde11610066578063b88d4fde14610284578063c87b56dd146102a0578063e1281d1a146102d0578063e985e9c514610300576100f5565b80636352211e146101ea57806370a082311461021a57806395d89b411461024a578063a22cb46514610268576100f5565b8063095ea7b3116100d3578063095ea7b31461017857806317d70f7c1461019457806323b872dd146101b257806342842e0e146101ce576100f5565b806301ffc9a7146100fa57806306fdde031461012a578063081812fc14610148575b600080fd5b610114600480360381019061010f9190611cd4565b610330565b6040516101219190611d1c565b60405180910390f35b610132610412565b60405161013f9190611dd0565b60405180910390f35b610162600480360381019061015d9190611e28565b6104a4565b60405161016f9190611e96565b60405180910390f35b610192600480360381019061018d9190611edd565b6104ea565b005b61019c610601565b6040516101a99190611f2c565b60405180910390f35b6101cc60048036038101906101c79190611f47565b61060d565b005b6101e860048036038101906101e39190611f47565b61066d565b005b61020460048036038101906101ff9190611e28565b61068d565b6040516102119190611e96565b60405180910390f35b610234600480360381019061022f9190611f9a565b610713565b6040516102419190611f2c565b60405180910390f35b6102526107ca565b60405161025f9190611dd0565b60405180910390f35b610282600480360381019061027d9190611ff3565b61085c565b005b61029e60048036038101906102999190612168565b610872565b005b6102ba60048036038101906102b59190611e28565b6108d4565b6040516102c79190611dd0565b60405180910390f35b6102ea60048036038101906102e5919061228c565b6109e6565b6040516102f79190611f2c565b60405180910390f35b61031a60048036038101906103159190612363565b610a2b565b6040516103279190611d1c565b60405180910390f35b60007f80ac58cd000000000000000000000000000000000000000000000000000000007bffffffffffffffffffffffffffffffffffffffffffffffffffffffff1916827bffffffffffffffffffffffffffffffffffffffffffffffffffffffff191614806103fb57507f5b5e139f000000000000000000000000000000000000000000000000000000007bffffffffffffffffffffffffffffffffffffffffffffffffffffffff1916827bffffffffffffffffffffffffffffffffffffffffffffffffffffffff1916145b8061040b575061040a82610abf565b5b9050919050565b606060008054610421906123d2565b80601f016020809104026020016040519081016040528092919081815260200182805461044d906123d2565b801561049a5780601f1061046f5761010080835404028352916020019161049a565b820191906000526020600020905b81548152906001019060200180831161047d57829003601f168201915b5050505050905090565b60006104af82610b29565b6004600083815260200190815260200160002060009054906101000a900473ffffffffffffffffffffffffffffffffffffffff169050919050565b60006104f58261068d565b90508073ffffffffffffffffffffffffffffffffffffffff168373ffffffffffffffffffffffffffffffffffffffff1603610565576040517f08c379a000000000000000000000000000000000000000000000000000000000815260040161055c90612475565b60405180910390fd5b8073ffffffffffffffffffffffffffffffffffffffff16610584610b74565b73ffffffffffffffffffffffffffffffffffffffff1614806105b357506105b2816105ad610b74565b610a2b565b5b6105f2576040517f08c379a00000000000000000000000000000000000000000000000000000000081526004016105e990612507565b60405180910390fd5b6105fc8383610b7c565b505050565b60078060000154905081565b61061e610618610b74565b82610c35565b61065d576040517f08c379a000000000000000000000000000000000000000000000000000000000815260040161065490612599565b60405180910390fd5b610668838383610cca565b505050565b61068883838360405180602001604052806000815250610872565b505050565b60008061069983610fc3565b9050600073ffffffffffffffffffffffffffffffffffffffff168173ffffffffffffffffffffffffffffffffffffffff160361070a576040517f08c379a000000000000000000000000000000000000000000000000000000000815260040161070190612605565b60405180910390fd5b80915050919050565b60008073ffffffffffffffffffffffffffffffffffffffff168273ffffffffffffffffffffffffffffffffffffffff1603610783576040517f08c379a000000000000000000000000000000000000000000000000000000000815260040161077a90612697565b60405180910390fd5b600360008373ffffffffffffffffffffffffffffffffffffffff1673ffffffffffffffffffffffffffffffffffffffff168152602001908152602001600020549050919050565b6060600180546107d9906123d2565b80601f0160208091040260200160405190810160405280929190818152602001828054610805906123d2565b80156108525780601f1061082757610100808354040283529160200191610852565b820191906000526020600020905b81548152906001019060200180831161083557829003601f168201915b5050505050905090565b61086e610867610b74565b8383611000565b5050565b61088361087d610b74565b83610c35565b6108c2576040517f08c379a00000000000000000000000000000000000000000000000000000000081526004016108b990612599565b60405180910390fd5b6108ce8484848461116c565b50505050565b60606108df82610b29565b60006006600084815260200190815260200160002080546108ff906123d2565b80601f016020809104026020016040519081016040528092919081815260200182805461092b906123d2565b80156109785780601f1061094d57610100808354040283529160200191610978565b820191906000526020600020905b81548152906001019060200180831161095b57829003601f168201915b5050505050905060006109896111c8565b9050600081510361099e5781925050506109e1565b6000825111156109d35780826040516020016109bb9291906126f3565b604051602081830303815290604052925050506109e1565b6109dc846111df565b925050505b919050565b60006109f26007611247565b60006109fe600761125d565b9050610a0a338261126b565b610a1f81610a1a88888888611289565b6112e8565b80915050949350505050565b6000600560008473ffffffffffffffffffffffffffffffffffffffff1673ffffffffffffffffffffffffffffffffffffffff16815260200190815260200160002060008373ffffffffffffffffffffffffffffffffffffffff1673ffffffffffffffffffffffffffffffffffffffff16815260200190815260200160002060009054906101000a900460ff16905092915050565b60007f01ffc9a7000000000000000000000000000000000000000000000000000000007bffffffffffffffffffffffffffffffffffffffffffffffffffffffff1916827bffffffffffffffffffffffffffffffffffffffffffffffffffffffff1916149050919050565b610b3281611355565b610b71576040517f08c379a0000000000000000000000000000000000000000000000000000000008152600401610b6890612605565b60405180910390fd5b50565b600033905090565b816004600083815260200190815260200160002060006101000a81548173ffffffffffffffffffffffffffffffffffffffff021916908373ffffffffffffffffffffffffffffffffffffffff160217905550808273ffffffffffffffffffffffffffffffffffffffff16610bef8361068d565b73ffffffffffffffffffffffffffffffffffffffff167f8c5be1e5ebec7d5bd14f71427d1e84f3dd0314c0f7b2291e5b200ac8c7c3b92560405160405180910390a45050565b600080610c418361068d565b90508073ffffffffffffffffffffffffffffffffffffffff168473ffffffffffffffffffffffffffffffffffffffff161480610c835750610c828185610a2b565b5b80610cc157508373ffffffffffffffffffffffffffffffffffffffff16610ca9846104a4565b73ffffffffffffffffffffffffffffffffffffffff16145b91505092915050565b8273ffffffffffffffffffffffffffffffffffffffff16610cea8261068d565b73ffffffffffffffffffffffffffffffffffffffff1614610d40576040517f08c379a0000000000000000000000000000000000000000000000000000000008152600401610d3790612789565b60405180910390fd5b600073ffffffffffffffffffffffffffffffffffffffff168273ffffffffffffffffffffffffffffffffffffffff1603610daf576040517f08c379a0000000000000000000000000000000000000000000000000000000008152600401610da69061281b565b60405180910390fd5b610dbc8383836001611396565b8273ffffffffffffffffffffffffffffffffffffffff16610ddc8261068d565b73ffffffffffffffffffffffffffffffffffffffff1614610e32576040517f08c379a0000000000000000000000000000000000000000000000000000000008152600401610e2990612789565b60405180910390fd5b6004600082815260200190815260200160002060006101000a81549073ffffffffffffffffffffffffffffffffffffffff02191690556001600360008573ffffffffffffffffffffffffffffffffffffffff1673ffffffffffffffffffffffffffffffffffffffff168152602001908152602001600020600082825403925050819055506001600360008473ffffffffffffffffffffffffffffffffffffffff1673ffffffffffffffffffffffffffffffffffffffff16815260200190815260200160002060008282540192505081905550816002600083815260200190815260200160002060006101000a81548173ffffffffffffffffffffffffffffffffffffffff021916908373ffffffffffffffffffffffffffffffffffffffff160217905550808273ffffffffffffffffffffffffffffffffffffffff168473ffffffffffffffffffffffffffffffffffffffff167fddf252ad1be2c89b69c2b068fc378daa952ba7f163c4a11628f55a4df523b3ef60405160405180910390a4610fbe83838360016114bc565b505050565b60006002600083815260200190815260200160002060009054906101000a900473ffffffffffffffffffffffffffffffffffffffff169050919050565b8173ffffffffffffffffffffffffffffffffffffffff168373ffffffffffffffffffffffffffffffffffffffff160361106e576040517f08c379a000000000000000000000000000000000000000000000000000000000815260040161106590612887565b60405180910390fd5b80600560008573ffffffffffffffffffffffffffffffffffffffff1673ffffffffffffffffffffffffffffffffffffffff16815260200190815260200160002060008473ffffffffffffffffffffffffffffffffffffffff1673ffffffffffffffffffffffffffffffffffffffff16815260200190815260200160002060006101000a81548160ff0219169083151502179055508173ffffffffffffffffffffffffffffffffffffffff168373ffffffffffffffffffffffffffffffffffffffff167f17307eab39ab6107e8899845ad3d59bd9653f200f220920489ca2b5937696c318360405161115f9190611d1c565b60405180910390a3505050565b611177848484610cca565b611183848484846114c2565b6111c2576040517f08c379a00000000000000000000000000000000000000000000000000000000081526004016111b990612919565b60405180910390fd5b50505050565b606060405180602001604052806000815250905090565b60606111ea82610b29565b60006111f46111c8565b90506000815111611214576040518060200160405280600081525061123f565b8061121e84611649565b60405160200161122f9291906126f3565b6040516020818303038152906040525b915050919050565b6001816000016000828254019250508190555050565b600081600001549050919050565b611285828260405180602001604052806000815250611717565b5050565b60606000858585856040516020016112a49493929190612b4d565b60405160208183030381529060405290506112be81611772565b6040516020016112ce9190612c3a565b604051602081830303815290604052915050949350505050565b6112f182611355565b611330576040517f08c379a000000000000000000000000000000000000000000000000000000000815260040161132790612cce565b60405180910390fd5b806006600084815260200190815260200160002090816113509190612e9a565b505050565b60008073ffffffffffffffffffffffffffffffffffffffff1661137783610fc3565b73ffffffffffffffffffffffffffffffffffffffff1614159050919050565b60018111156114b657600073ffffffffffffffffffffffffffffffffffffffff168473ffffffffffffffffffffffffffffffffffffffff161461142a5780600360008673ffffffffffffffffffffffffffffffffffffffff1673ffffffffffffffffffffffffffffffffffffffff16815260200190815260200160002060008282546114229190612f9b565b925050819055505b600073ffffffffffffffffffffffffffffffffffffffff168373ffffffffffffffffffffffffffffffffffffffff16146114b55780600360008573ffffffffffffffffffffffffffffffffffffffff1673ffffffffffffffffffffffffffffffffffffffff16815260200190815260200160002060008282546114ad9190612fcf565b925050819055505b5b50505050565b50505050565b60006114e38473ffffffffffffffffffffffffffffffffffffffff166118d5565b1561163c578373ffffffffffffffffffffffffffffffffffffffff1663150b7a0261150c610b74565b8786866040518563ffffffff1660e01b815260040161152e949392919061307a565b6020604051808303816000875af192505050801561156a57506040513d601f19601f8201168201806040525081019061156791906130db565b60015b6115ec573d806000811461159a576040519150601f19603f3d011682016040523d82523d6000602084013e61159f565b606091505b5060008151036115e4576040517f08c379a00000000000000000000000000000000000000000000000000000000081526004016115db90612919565b60405180910390fd5b805181602001fd5b63150b7a0260e01b7bffffffffffffffffffffffffffffffffffffffffffffffffffffffff1916817bffffffffffffffffffffffffffffffffffffffffffffffffffffffff191614915050611641565b600190505b949350505050565b606060006001611658846118f8565b01905060008167ffffffffffffffff8111156116775761167661203d565b5b6040519080825280601f01601f1916602001820160405280156116a95781602001600182028036833780820191505090505b509050600082602001820190505b60011561170c578080600190039150507f3031323334353637383961626364656600000000000000000000000000000000600a86061a8153600a8581611700576116ff613108565b5b049450600085036116b7575b819350505050919050565b6117218383611a4b565b61172e60008484846114c2565b61176d576040517f08c379a000000000000000000000000000000000000000000000000000000000815260040161176490612919565b60405180910390fd5b505050565b60606000825103611794576040518060200160405280600081525090506118d0565b600060405180606001604052806040815260200161329b60409139905060006003600285516117c39190612fcf565b6117cd9190613137565b60046117d99190613168565b67ffffffffffffffff8111156117f2576117f161203d565b5b6040519080825280601f01601f1916602001820160405280156118245781602001600182028036833780820191505090505b509050600182016020820185865187015b80821015611890576003820191508151603f8160121c168501518453600184019350603f81600c1c168501518453600184019350603f8160061c168501518453600184019350603f8116850151845360018401935050611835565b50506003865106600181146118ac57600281146118bf576118c7565b603d6001830353603d60028303536118c7565b603d60018303535b50505080925050505b919050565b6000808273ffffffffffffffffffffffffffffffffffffffff163b119050919050565b600080600090507a184f03e93ff9f4daa797ed6e38ed64bf6a1f0100000000000000008310611956577a184f03e93ff9f4daa797ed6e38ed64bf6a1f010000000000000000838161194c5761194b613108565b5b0492506040810190505b6d04ee2d6d415b85acef81000000008310611993576d04ee2d6d415b85acef8100000000838161198957611988613108565b5b0492506020810190505b662386f26fc1000083106119c257662386f26fc1000083816119b8576119b7613108565b5b0492506010810190505b6305f5e10083106119eb576305f5e10083816119e1576119e0613108565b5b0492506008810190505b6127108310611a10576127108381611a0657611a05613108565b5b0492506004810190505b60648310611a335760648381611a2957611a28613108565b5b0492506002810190505b600a8310611a42576001810190505b80915050919050565b600073ffffffffffffffffffffffffffffffffffffffff168273ffffffffffffffffffffffffffffffffffffffff1603611aba576040517f08c379a0000000000000000000000000000000000000000000000000000000008152600401611ab19061320e565b60405180910390fd5b611ac381611355565b15611b03576040517f08c379a0000000000000000000000000000000000000000000000000000000008152600401611afa9061327a565b60405180910390fd5b611b11600083836001611396565b611b1a81611355565b15611b5a576040517f08c379a0000000000000000000000000000000000000000000000000000000008152600401611b519061327a565b60405180910390fd5b6001600360008473ffffffffffffffffffffffffffffffffffffffff1673ffffffffffffffffffffffffffffffffffffffff16815260200190815260200160002060008282540192505081905550816002600083815260200190815260200160002060006101000a81548173ffffffffffffffffffffffffffffffffffffffff021916908373ffffffffffffffffffffffffffffffffffffffff160217905550808273ffffffffffffffffffffffffffffffffffffffff16600073ffffffffffffffffffffffffffffffffffffffff167fddf252ad1be2c89b69c2b068fc378daa952ba7f163c4a11628f55a4df523b3ef60405160405180910390a4611c646000838360016114bc565b5050565b6000604051905090565b600080fd5b600080fd5b60007fffffffff0000000000000000000000000000000000000000000000000000000082169050919050565b611cb181611c7c565b8114611cbc57600080fd5b50565b600081359050611cce81611ca8565b92915050565b600060208284031215611cea57611ce9611c72565b5b6000611cf884828501611cbf565b91505092915050565b60008115159050919050565b611d1681611d01565b82525050565b6000602082019050611d316000830184611d0d565b92915050565b600081519050919050565b600082825260208201905092915050565b60005b83811015611d71578082015181840152602081019050611d56565b83811115611d80576000848401525b50505050565b6000601f19601f8301169050919050565b6000611da282611d37565b611dac8185611d42565b9350611dbc818560208601611d53565b611dc581611d86565b840191505092915050565b60006020820190508181036000830152611dea8184611d97565b905092915050565b6000819050919050565b611e0581611df2565b8114611e1057600080fd5b50565b600081359050611e2281611dfc565b92915050565b600060208284031215611e3e57611e3d611c72565b5b6000611e4c84828501611e13565b91505092915050565b600073ffffffffffffffffffffffffffffffffffffffff82169050919050565b6000611e8082611e55565b9050919050565b611e9081611e75565b82525050565b6000602082019050611eab6000830184611e87565b92915050565b611eba81611e75565b8114611ec557600080fd5b50565b600081359050611ed781611eb1565b92915050565b60008060408385031215611ef457611ef3611c72565b5b6000611f0285828601611ec8565b9250506020611f1385828601611e13565b9150509250929050565b611f2681611df2565b82525050565b6000602082019050611f416000830184611f1d565b92915050565b600080600060608486031215611f6057611f5f611c72565b5b6000611f6e86828701611ec8565b9350506020611f7f86828701611ec8565b9250506040611f9086828701611e13565b9150509250925092565b600060208284031215611fb057611faf611c72565b5b6000611fbe84828501611ec8565b91505092915050565b611fd081611d01565b8114611fdb57600080fd5b50565b600081359050611fed81611fc7565b92915050565b6000806040838503121561200a57612009611c72565b5b600061201885828601611ec8565b925050602061202985828601611fde565b9150509250929050565b600080fd5b600080fd5b7f4e487b7100000000000000000000000000000000000000000000000000000000600052604160045260246000fd5b61207582611d86565b810181811067ffffffffffffffff821117156120945761209361203d565b5b80604052505050565b60006120a7611c68565b90506120b3828261206c565b919050565b600067ffffffffffffffff8211156120d3576120d261203d565b5b6120dc82611d86565b9050602081019050919050565b82818337600083830152505050565b600061210b612106846120b8565b61209d565b90508281526020810184848401111561212757612126612038565b5b6121328482856120e9565b509392505050565b600082601f83011261214f5761214e612033565b5b813561215f8482602086016120f8565b91505092915050565b6000806000806080858703121561218257612181611c72565b5b600061219087828801611ec8565b94505060206121a187828801611ec8565b93505060406121b287828801611e13565b925050606085013567ffffffffffffffff8111156121d3576121d2611c77565b5b6121df8782880161213a565b91505092959194509250565b600067ffffffffffffffff8211156122065761220561203d565b5b61220f82611d86565b9050602081019050919050565b600061222f61222a846121eb565b61209d565b90508281526020810184848401111561224b5761224a612038565b5b6122568482856120e9565b509392505050565b600082601f83011261227357612272612033565b5b813561228384826020860161221c565b91505092915050565b600080600080608085870312156122a6576122a5611c72565b5b600085013567ffffffffffffffff8111156122c4576122c3611c77565b5b6122d08782880161225e565b945050602085013567ffffffffffffffff8111156122f1576122f0611c77565b5b6122fd8782880161225e565b935050604085013567ffffffffffffffff81111561231e5761231d611c77565b5b61232a8782880161225e565b925050606085013567ffffffffffffffff81111561234b5761234a611c77565b5b6123578782880161225e565b91505092959194509250565b6000806040838503121561237a57612379611c72565b5b600061238885828601611ec8565b925050602061239985828601611ec8565b9150509250929050565b7f4e487b7100000000000000000000000000000000000000000000000000000000600052602260045260246000fd5b600060028204905060018216806123ea57607f821691505b6020821081036123fd576123fc6123a3565b5b50919050565b7f4552433732313a20617070726f76616c20746f2063757272656e74206f776e6560008201527f7200000000000000000000000000000000000000000000000000000000000000602082015250565b600061245f602183611d42565b915061246a82612403565b604082019050919050565b6000602082019050818103600083015261248e81612452565b9050919050565b7f4552433732313a20617070726f76652063616c6c6572206973206e6f7420746f60008201527f6b656e206f776e6572206f7220617070726f76656420666f7220616c6c000000602082015250565b60006124f1603d83611d42565b91506124fc82612495565b604082019050919050565b60006020820190508181036000830152612520816124e4565b9050919050565b7f4552433732313a2063616c6c6572206973206e6f7420746f6b656e206f776e6560008201527f72206f7220617070726f76656400000000000000000000000000000000000000602082015250565b6000612583602d83611d42565b915061258e82612527565b604082019050919050565b600060208201905081810360008301526125b281612576565b9050919050565b7f4552433732313a20696e76616c696420746f6b656e2049440000000000000000600082015250565b60006125ef601883611d42565b91506125fa826125b9565b602082019050919050565b6000602082019050818103600083015261261e816125e2565b9050919050565b7f4552433732313a2061646472657373207a65726f206973206e6f74206120766160008201527f6c6964206f776e65720000000000000000000000000000000000000000000000602082015250565b6000612681602983611d42565b915061268c82612625565b604082019050919050565b600060208201905081810360008301526126b081612674565b9050919050565b600081905092915050565b60006126cd82611d37565b6126d781856126b7565b93506126e7818560208601611d53565b80840191505092915050565b60006126ff82856126c2565b915061270b82846126c2565b91508190509392505050565b7f4552433732313a207472616e736665722066726f6d20696e636f72726563742060008201527f6f776e6572000000000000000000000000000000000000000000000000000000602082015250565b6000612773602583611d42565b915061277e82612717565b604082019050919050565b600060208201905081810360008301526127a281612766565b9050919050565b7f4552433732313a207472616e7366657220746f20746865207a65726f2061646460008201527f7265737300000000000000000000000000000000000000000000000000000000602082015250565b6000612805602483611d42565b9150612810826127a9565b604082019050919050565b60006020820190508181036000830152612834816127f8565b9050919050565b7f4552433732313a20617070726f766520746f2063616c6c657200000000000000600082015250565b6000612871601983611d42565b915061287c8261283b565b602082019050919050565b600060208201905081810360008301526128a081612864565b9050919050565b7f4552433732313a207472616e7366657220746f206e6f6e20455243373231526560008201527f63656976657220696d706c656d656e7465720000000000000000000000000000602082015250565b6000612903603283611d42565b915061290e826128a7565b604082019050919050565b60006020820190508181036000830152612932816128f6565b9050919050565b7f7b00000000000000000000000000000000000000000000000000000000000000600082015250565b600061296f6001836126b7565b915061297a82612939565b600182019050919050565b7f226e616d65223a20220000000000000000000000000000000000000000000000600082015250565b60006129bb6009836126b7565b91506129c682612985565b600982019050919050565b7f222c000000000000000000000000000000000000000000000000000000000000600082015250565b6000612a076002836126b7565b9150612a12826129d1565b600282019050919050565b7f226465736372697074696f6e223a202200000000000000000000000000000000600082015250565b6000612a536010836126b7565b9150612a5e82612a1d565b601082019050919050565b7f22696d61676555726c223a202200000000000000000000000000000000000000600082015250565b6000612a9f600d836126b7565b9150612aaa82612a69565b600d82019050919050565b7f22617574686f72223a2022000000000000000000000000000000000000000000600082015250565b6000612aeb600b836126b7565b9150612af682612ab5565b600b82019050919050565b7f227d000000000000000000000000000000000000000000000000000000000000600082015250565b6000612b376002836126b7565b9150612b4282612b01565b600282019050919050565b6000612b5882612962565b9150612b63826129ae565b9150612b6f82876126c2565b9150612b7a826129fa565b9150612b8582612a46565b9150612b9182866126c2565b9150612b9c826129fa565b9150612ba782612a92565b9150612bb382856126c2565b9150612bbe826129fa565b9150612bc982612ade565b9150612bd582846126c2565b9150612be082612b2a565b915081905095945050505050565b7f646174613a6170706c69636174696f6e2f6a736f6e3b6261736536342c000000600082015250565b6000612c24601d836126b7565b9150612c2f82612bee565b601d82019050919050565b6000612c4582612c17565b9150612c5182846126c2565b915081905092915050565b7f45524337323155524953746f726167653a2055524920736574206f66206e6f6e60008201527f6578697374656e7420746f6b656e000000000000000000000000000000000000602082015250565b6000612cb8602e83611d42565b9150612cc382612c5c565b604082019050919050565b60006020820190508181036000830152612ce781612cab565b9050919050565b60008190508160005260206000209050919050565b60006020601f8301049050919050565b600082821b905092915050565b600060088302612d507fffffffffffffffffffffffffffffffffffffffffffffffffffffffffffffffff82612d13565b612d5a8683612d13565b95508019841693508086168417925050509392505050565b6000819050919050565b6000612d97612d92612d8d84611df2565b612d72565b611df2565b9050919050565b6000819050919050565b612db183612d7c565b612dc5612dbd82612d9e565b848454612d20565b825550505050565b600090565b612dda612dcd565b612de5818484612da8565b505050565b5b81811015612e0957612dfe600082612dd2565b600181019050612deb565b5050565b601f821115612e4e57612e1f81612cee565b612e2884612d03565b81016020851015612e37578190505b612e4b612e4385612d03565b830182612dea565b50505b505050565b600082821c905092915050565b6000612e7160001984600802612e53565b1980831691505092915050565b6000612e8a8383612e60565b9150826002028217905092915050565b612ea382611d37565b67ffffffffffffffff811115612ebc57612ebb61203d565b5b612ec682546123d2565b612ed1828285612e0d565b600060209050601f831160018114612f045760008415612ef2578287015190505b612efc8582612e7e565b865550612f64565b601f198416612f1286612cee565b60005b82811015612f3a57848901518255600182019150602085019450602081019050612f15565b86831015612f575784890151612f53601f891682612e60565b8355505b6001600288020188555050505b505050505050565b7f4e487b7100000000000000000000000000000000000000000000000000000000600052601160045260246000fd5b6000612fa682611df2565b9150612fb183611df2565b925082821015612fc457612fc3612f6c565b5b828203905092915050565b6000612fda82611df2565b9150612fe583611df2565b9250827fffffffffffffffffffffffffffffffffffffffffffffffffffffffffffffffff0382111561301a57613019612f6c565b5b828201905092915050565b600081519050919050565b600082825260208201905092915050565b600061304c82613025565b6130568185613030565b9350613066818560208601611d53565b61306f81611d86565b840191505092915050565b600060808201905061308f6000830187611e87565b61309c6020830186611e87565b6130a96040830185611f1d565b81810360608301526130bb8184613041565b905095945050505050565b6000815190506130d581611ca8565b92915050565b6000602082840312156130f1576130f0611c72565b5b60006130ff848285016130c6565b91505092915050565b7f4e487b7100000000000000000000000000000000000000000000000000000000600052601260045260246000fd5b600061314282611df2565b915061314d83611df2565b92508261315d5761315c613108565b5b828204905092915050565b600061317382611df2565b915061317e83611df2565b9250817fffffffffffffffffffffffffffffffffffffffffffffffffffffffffffffffff04831182151516156131b7576131b6612f6c565b5b828202905092915050565b7f4552433732313a206d696e7420746f20746865207a65726f2061646472657373600082015250565b60006131f8602083611d42565b9150613203826131c2565b602082019050919050565b60006020820190508181036000830152613227816131eb565b9050919050565b7f4552433732313a20746f6b656e20616c7265616479206d696e74656400000000600082015250565b6000613264601c83611d42565b915061326f8261322e565b602082019050919050565b6000602082019050818103600083015261329381613257565b905091905056fe4142434445464748494a4b4c4d4e4f505152535455565758595a6162636465666768696a6b6c6d6e6f707172737475767778797a303132333435363738392b2fa264697066735822122015ebbd4047b1241bed14083f11d67261c0bd7780838840907b0430bf3ad7b9b564736f6c634300080f0033",
  "immutableReferences": {},
  "source": "//SPDX-License-Identifier: UNLICENSED\n//0x8f76099ddfBE52FaF0210a5d21c5313B440c4aFd\npragma solidity ^0.8;\n\nimport \"@openzeppelin/contracts/token/ERC721/extensions/ERC721URIStorage.sol\";\nimport \"@openzeppelin/contracts/utils/Counters.sol\";\nimport \"@openzeppelin/contracts/utils/Base64.sol\";\n\ncontract IdeaNfFT is ERC721URIStorage{\n    using Counters for Counters.Counter;\n    Counters.Counter public tokenId;\n\n    constructor() ERC721 (\"Idea NFT\", \"DIP\"){}\n\n    function getTokenURI(string memory _name, string memory _description, string memory _imageUrl, string memory _author) private pure returns (string memory){\n        bytes memory dataURI = abi.encodePacked(\n            \"{\",\n            '\"name\": \"',\n            _name,\n            '\",',\n            '\"description\": \"',\n            _description,\n            '\",',\n            '\"imageUrl\": \"',\n            _imageUrl,\n            '\",',\n            '\"author\": \"',\n            _author,\n            '\"'\n            \"}\"\n        );\n\n        return string(\n            abi.encodePacked(\n                \"data:application/json;base64,\",\n                Base64.encode(dataURI)\n            )\n        );\n    }\n\n    function createIdea(string memory _name, string memory _description, string memory _imageUrl, string memory _author) public returns (uint256){\n        tokenId.increment();\n        uint256 newTokenId = tokenId.current();\n        _safeMint(msg.sender, newTokenId);\n        _setTokenURI(newTokenId, getTokenURI(_name, _description, _imageUrl, _author));\n        return newTokenId;\n    }\n}\n\n",
  "sourcePath": "/Users/shubham/DIP-SmartContract/contracts/IdeaNFT.sol",
  "compiler": {
    "name": "solc",
    "version": "0.8.15+commit.e14f2714.Emscripten.clang"
  },
  "schemaVersion": "3.4.8",
  "updatedAt": "2023-01-06T04:58:13.075Z",
  "devdoc": {
    "kind": "dev",
    "methods": {
      "approve(address,uint256)": {
        "details": "See {IERC721-approve}."
      },
      "balanceOf(address)": {
        "details": "See {IERC721-balanceOf}."
      },
      "getApproved(uint256)": {
        "details": "See {IERC721-getApproved}."
      },
      "isApprovedForAll(address,address)": {
        "details": "See {IERC721-isApprovedForAll}."
      },
      "name()": {
        "details": "See {IERC721Metadata-name}."
      },
      "ownerOf(uint256)": {
        "details": "See {IERC721-ownerOf}."
      },
      "safeTransferFrom(address,address,uint256)": {
        "details": "See {IERC721-safeTransferFrom}."
      },
      "safeTransferFrom(address,address,uint256,bytes)": {
        "details": "See {IERC721-safeTransferFrom}."
      },
      "setApprovalForAll(address,bool)": {
        "details": "See {IERC721-setApprovalForAll}."
      },
      "supportsInterface(bytes4)": {
        "details": "See {IERC165-supportsInterface}."
      },
      "symbol()": {
        "details": "See {IERC721Metadata-symbol}."
      },
      "tokenURI(uint256)": {
        "details": "See {IERC721Metadata-tokenURI}."
      },
      "transferFrom(address,address,uint256)": {
        "details": "See {IERC721-transferFrom}."
      }
    },
    "version": 1
  },
  "userdoc": {
    "kind": "user",
    "methods": {},
    "version": 1
  }
}